:03000000020100FA
:02000B000932B8
:1001000031B4511F511F511F7900748031F1511FBB
:100110009003005111511F74C031F1511F90031110
:100120005111511F75900F51305130D294D2AFD22E
:10013000A9758901758A00758C00D28CA29350FC38
:10014000C28CC294748031F1511F9003225111511D
:100150001F74C031F1511F9003335111511F74C9E5
:1001600031F1511FE954F0C4514B5100511FE95472
:100170000F514B5100511F74CC31F1511FE58C547C
:10018000F0C4514B5100511FE58C540F514B51009D
:10019000511FE58A54F0C4514B5100511FE58A5458
:1001A0000F514B5100511F5130513051305130518E
:1001B0003002010875A038C280C281D282511FC2AC
:1001C00082511F75A00CC280C281D282511FC2828F
:1001D000511F75A001C280C281D282511FC28251BB
:1001E0001F75A006C280C281D282511FC282511FD8
:1001F00022F5A0C280C281D282511FC282511F2229
:10020000F5A0D280C281D282511FC282511F511FDC
:1002100022C0E0E49360055100A380F7D0E022C043
:0B02200000C001780179FFD9FED8FA78
:10022B00D001D00022C0007828758901758AB0757D
:10023B008C3CD28C308DFDC28CC28DD8ECD0002280
:0F024B00FFC3940A4005EF24078001EF243022FF
:1003000020206966204C454420676C6F777320205D
:1003100000202020546F67676C65205357312020E0
:10032000200020205265616374696F6E2054696DEE
:10033000652000436F756E74206973203030203063
:040340003030300029
:00000001FF
